:020000040800F2
:10000000D8F400206D9C0008AD140008AF1400085F
:10001000B1140008B3140008B51400080000000073
:10002000000000000000000000000000B7140008FD
:10003000B9140008000000004FA20108499A000806
:10004000879C0008879C0008879C0008ED980008A2
:10005000879C0008879C0008879C0008879C0008F4
:10006000879C0008879C0008879C0008879C0008E4
:10007000FB8E0008879C0008879C0008879C00086E
:10008000879C00087B940008879C0008879C0008D8
:10009000879C0008879C0008879C0008879C0008B4
:1000A000879C0008879C0008879C0008879C0008A4
:1000B000879C000841700008879C0008879C000806
:1000C000879C0008879C0008879C0008879C000884
:1000D000879C0008FF9B000821910008D18C000834
:1000E000879C0008879C0008879C0008879C000864
:1000F000879C0008879C0008879C0008879C000854
:10010000879C0008FD850008879C0008879C0008E4
:10011000879C0008879C0008B1700008879C000835
:10012000879C0008879C0008879C0008879C000823
:1001300000F002F800F0B0F80AA090E8000C824449
:100140008344AAF10107DA4501D100F0A5F8AFF226
:10015000090EBAE80F0013F0010F18BFFB1A43F0A5
:1001600001031847C84C0600E84C06000A444FF04B
:10017000000C10F8013B13F0070408BF10F8014B06
:100180001D1108BF10F8015B641E05D010F8016B4B
:10019000641E01F8016BF9D113F0080F1EBF10F8AF
:1001A000014BAD1C0C1B09D16D1E58BF01F801CBD2
:1001B000FAD505E014F8016B01F8016B6D1EF9D555
:1001C0009142D6D37047000000230024002500266A
:1001D000103A28BF78C1FBD8520728BF30C148BFAA
:1001E0000B6070476E2918F07986702918F02B8300
:1001F000662937F06281652937F05F81672937F01A
:100200005C816129AFF3008003681B0A28BF41F0BD
:100210008001692918F09C82642918F09982752957
:1002200018F096826F2918F07887782918F0F782ED
:10023000E92918F01387E42918F01087F52918F038
:100240000D87EF2918F07587F82918F0F6820368F2
:10025000DB0928BF41F08001632918F082867329E9
:1002600018F08786E32919F09182F32919F0968214
:10027000002070471FB519F04BFB0400002000213F
:1002800036F070F9401C60600020002136F080F9E3
:10029000E0601FBD10B510BD19F015FB1146FFF74A
:1002A000E9FF00F050FF19F0F3FB03B4FFF7F2FF92
:1002B00003BC09F04BFC00002DE9FC5F00254FF466
:1002C0003471FE4818F0FAFC4FF41671FC4818F02F
:1002D000F5FCFC49FA4818F0E1FBF94EDFF8DCB315
:1002E0006FE00836304618F07DFBC1B205EBC5095A
:1002F000F5A00BF8391018F0B9F9F61C3746222191
:10030000304618F083FB4FF0000A064680F800A044
:100310000BEBC904601C394618F0B4F92220307088
:10032000611CEBA018F0A2F9B61CB0462C21304697
:1003300018F06CFB064680F800A0404618F052FB0F
:10034000E0622C203070E0A0E16A18F08FF9B61C52
:10035000B0462221304618F059FB064680F800A02E
:1003600004F130074146384618F08CF922203070ED
:100370003946D7A018F07AF9B61CB0462921304684
:1003800018F044FB064680F800A0404618F02AFB0F
:1003900004F8440F2920307014F81819CAA018F076
:1003A00065F914F8180FA4F14302CDE9007054F870
:1003B000183C1BF83910C8A0F61C18F057F96D1C32
:1003C000EDB230780D2801D00A2D8AD1CD4E00240F
:1003D00035705D4612E004EBC40005EBC00202F18B
:1003E000300192F84430CDE9001315F83010D36A8B
:1003F000B9A0521C18F03AF9641CE4B23078844277
:10040000E9D3BDE8FC5FAE49B1A018F02FB90EB535
:100410000025BD4C012602AF4FF00808002001F076
:100420005BF9012809D102A80CF0ACFEC4F8945184
:10043000C4F8946102A80CF0DEFE0022CDE900872A
:100440000A231146104610F082FEE7E70EB5DFF8EA
:10045000BC8202AE08270121444640460AF047F814
:10046000012839D10023CDE9007602221946184629
:1004700010F06DFE012120460AF039F801282BD139
:100480004FF6FF75284601F0FEFD02A80CF07AFE3B
:100490009FA01024CDE900401E23FA2232210A2019
:1004A00004F04FFFA2A3102246210A2015F09BFC66
:1004B000284601F0E8FD9F494FF478401E2308804C
:1004C0009DA0CDE900404FF48C7232210A2004F047
:1004D00038FF02A80CF08FFE0022CDE900760A2337
:1004E0001146104610F033FEB5E70EB5744E0025E8
:1004F0005C3E02AC4FF4827808274FF4FA797048DA
:10050000CDE900544346002203215C380DF085FB01
:100510006B4802A9343811F0C6F890A0316A18F07F
:10052000A5F80022CDE900744B461146104610F0A4
:100530000EFEE4E71FB5914DDFF8CC914FF6FF7B3F
:100540004FF001080026A5F1A00402AF4FF0080A01
:100550005B48002203AB11468C38CDE900670EF0F2
:10056000DFFD007841380F286AD2DFE800F0080A82
:1005700010121416191B1D1F222426292E0080A2DA
:1005800000E082A25946002008F0E2FF58E082A273
:1005900004E083A202E084A200E085A20221F2E747
:1005A0007DA204E07EA202E07FA200E080A20321FF
:1005B000E9E779A202E07AA200E07BA20421E2E767
:1005C0007BA20421002008F0C3FFE0692860E06BF3
:1005D0006860E06DA86078A25946002008F0B8FF76
:1005E00040F2DC5009F083FAE0692968884205D0BE
:1005F00074A018F03BF884F81A8003E075A018F096
:1006000035F8A676E06B6968884205D075A018F0C9
:100610002DF884F83A8004E076A018F027F884F8E2
:100620003A60E06DA968884205D076A018F01EF8FF
:1006300084F85A8004E077A018F018F884F85A601B
:10064000D9F89401494688B10020C1F89401D1F845
:10065000800168B10020C1F880010022CDE900A727
:1006600032231146104610F072FD71E70120ECE7CD
:100670000120F0E7A0B06BA016AB006819906AA04B
:1006800000681A90694807C883E80700032368A236
:100690006AA16BA008F006FD0028F7D00F23002206
:1006A00066A16AA008F0FEFC0028F7D0052300220E
:1006B00062A16DA008F0F6FC0028EFE0306A00208F
:1006C000D86700202080002025640D0A000000006B
:1006D00025730D0A0000000065636E3A25642C73D3
:1006E0007369643A25732C727373693A25642C6DAF
:1006F00061633A25732C6368616E6E656C3A25649C
:100700000D0A000000000020000023420008014004
:10071000466F6E7420557064617461696E672C5009
:100720006C6561736520576169742E2E2E00000080
:10073000303A00001A000020466F6E742055706435
:100740006174612066696E736865642C506C6561C4
:10075000736520526573746172742100CAC2BCFE55
:10076000B1EAD6BED7E94576656E74466C616773AB
:10077000B5C4D6B53A25640D0A000000C81E002095
:10078000414C4C5F4F46460D0A000000414C4C5F07
:100790004F4E0D0A000000005357313A300D0A0049
:1007A0005357313A310D0A005357323A300D0A008F
:1007B0005357323A310D0A00485F426561740D0AA1
:1007C0000000000030303032206F6E6C696E650DB5
:1007D0000A00000030303032206F66666C696E654A
:1007E0000D0A000030303033206F6E6C696E650D7D
:1007F0000A00000030303033206F66666C696E6529
:100800000D0A000030303034206F6E6C696E650D5B
:100810000A00000030303034206F66666C696E6507
:100820000D0A00002D0000002C000000A075030838
:100830006E6F206368616E67650000004F4B0000BB
:1008400041542B43574D4F44453D310041542B43B8
:10085000574A41503D22313233222C223338313035
:10086000303232316174220041542B4D5154545571
:100870005345524346473D302C312C224553505F5F
:1008800041544B222C22796F6E67222C2231323355
:10089000222C302C302C2222000000003FF406AF26
:1008A00005230022AFF26C01EDA008F0FBFB00284D
:1008B000F6D005230022AFF27C01F2A008F0F2FB93
:1008C0000028F6D005230022AFF29001F3A008F033
:1008D000E9FB0028F6D01CAB00220121F8480DF0FE
:1008E000EDFB0146AFF28C1017F0C0FEF4481CACD3
:1008F00000230122F3A1603800940EF094FD4FF420
:100900007A7009F0F4F8F048F04D0DF1580B4FF003
:1009100026084FF0000AA1461B90E948CDE900A93E
:10092000002254461DAB114660380EF0F9FB0078EA
:1009300064281DD007DC78B161281AD0622852D013
:10094000632815D159E065287ED066287DD06728B8
:100950007CD06828F5D129E10F230022AFF22411C1
:10096000DB4808F09FFB0028F6D0DA490120087028
:1009700089E205230022AFF23C11D7A008F092FBD8
:100980000028F6D0D048D8A1263818F049F830B160
:10099000D8A017F06BFE1120CDF8348005E0D8A068
:1009A00017F064FE1220CDF83480109025F08EFEF2
:1009B00040F6C20125F0A0FE0F9025F087FE0DA99C
:1009C00026F0B4FC28680028D2D025F074FE40F64A
:1009D000060125F091FE0F90286825F06CFE0DA908
:1009E00026F0A4FC4FE228680028C1D025F063FE61
:1009F00040F2024126F0A9FC45E2C4480DF1240C66
:100A000090F8451090F8514090F8503090F84620FA
:100A10008CE81E0090F826100DF1140CB0F842403E
:100A200090F8313090F830208CE81E00017C0DF1F8
:100A3000040C90F82540438C427C8CE81E008179A0
:100A400000914379428802E00DE031E078E0B0495E
:100A5000B04817F017FE05230022AFF22021AD4861
:100A600008F020FB0FE202230022AFF23021AAA0FF
:100A700008F018FB0028F6D0934915390C46AFF260
:100A8000B03017F0F3FD2146AFF2BC3017F0EEFDA9
:100A90001422214611A818F038F911A9AFF2D0306C
:100AA00017F0E4FD032211A91EA818F02EF9EAE1BF
:100AB000002605233246AFF27C219BA008F0F2FA13
:100AC000132211A81B9918F020F98DF8574011A98D
:100AD000AFF2044017F0CAFD19A911A817F090FF52
:100AE00004465F4614E00146AFF21C4017F0BEFD1D
:100AF000204617F077FF81B227F81610AFF2384082
:100B000017F0B4FD19A9002017F07AFF0446761CEF
:100B1000002CE8D1BDF86200BDF86010C0B2C9B2C7
:100B2000CDE90010BDF85E00C3B2BDF85C00C2B2F2
:100B3000BDF85A00C1B2BDF8580008F00CFEA2E1A1
:100B4000002605233246AFF20C3183A008F0AAFA42
:100B5000642008F0CCFF5C481AA9263817F050FF33
:100B6000074616E00146AFF2984017F07FFD032ECE
:100B700009D10D21384617F049FF04706348394602
:100B8000343817F08BFF1AA9002017F039FF0746F9
:100B9000761C002FE6D15D493439AFF2CC4017F016
:100BA00065FD25F093FD26F0D9F96CE100260523BB
:100BB0003246AFF278315CA008F074FA132211A823
:100BC0001B9918F0A2F8A2468DF8574011A9AFF270
:100BD000005017F04BFD19A911A817F011FF04469A
:100BE0005F4614E00146AFF2185017F03FFD204673
:100BF00017F0F8FE81B227F81610AFF2345017F054
:100C000035FD19A9002017F0FBFE0446761C002CC8
:100C1000E8D1BDF86200C1B2BDF86000C0B2CDE954
:100C20000001BDF85E00C3B2BDF85C00C2B2BDF801
:100C30005A00C1B2BDF8580008F08DFD05232246C8
:100C4000AFF2084144A008F02DFA642008F04FFFED
:100C50001D481AA9263817F0D3FE07465646ABE0C2
:100C600041542B4D515454434F4E4E3D302C223461
:100C7000372E3130362E36382E34222C3138383358
:100C80002C30000041542B4D5154545355423D30AB
:100C90002C226C656463746C222C310041542B4D02
:100CA0005154545355423D302C226D61737465721A
:100CB0005F7365727665725F737562222C31000016
:100CC0007C6700206800000046800020A80F0020FC
:100CD00094E60020A40F002041542B434950535464
:100CE00041545553000000005354415455533A3277
:100CF00000000000776966695F6F6E0D0A000000F2
:100D0000776966695F6F66660D0A0000281E00201D
:100D10002C480608006D002041542B434950534E87
:100D2000545054494D453F0041542B4D515454505B
:100D300055423D302C226D61737465725F7365722C
:100D40007665725F707562222C226765745F7469C4
:100D50006D65222C312C300041542B4D5154545090
:100D600055423D302C226D61737465725F736572FC
:100D70007665725F707562222C226765745F776595
:100D80006174686572222C312C3000000146AFF28C
:100D9000C06017F06BFC032C08D10D21384617F00A
:100DA00035FE06703946FE4817F078FE1AA9002075
:100DB00017F026FE0746641C002FE7D1F849AFF272
:100DC000F06017F053FC25F081FC26F0C7F80523EE
:100DD0000022AFF29851AFF2001008F063F900283A
:100DE000F5D0AFF2FC01EF4817F01AFE38B1AFF2C0
:100DF000FC0017F03BFC1120CDF8348006E0AFF288
:100E0000001017F033FC1220CDF83480109025F03C
:100E10005DFC40F6C20125F06FFC0F9025F056FCFA
:100E20000DA926F083FA286860B125F044FC40F64D
:100E3000060125F061FC0F90286825F03CFC0DA907
:100E400026F074FAD84801242246447040F2244126
:100E5000D6480AF08CFCD64FC7F8A0414FF47A7000
:100E600007F5D07708F043FE3E60D248C0F89841BD
:100E70001CAB00220221D0480DF020F90146AFF250
:100E8000247017F0F3FBCA49D1F8940198B10020FF
:100E9000C1F89401C749D1F8840170B10020C1F8AC
:100EA00084010821CDE900190023012219461846C2
:100EB00010F04DF931E50120EAE70120EFE70EB52A
:100EC00002AD08241EF038FF00220523114610460B
:100ED000CDE9004510F03BF9F4E7B84819F01EFCE5
:100EE000B74819F047FDB7481AF032F9B6481BF079
:100EF00051F9B64820F02EFCB54823F0B5F9B548B5
:100F000023F070FDB44823F091FEB44823F062FF53
:100F1000B34824F0D5F9B34824F0D8FAB24824F005
:100F200017FB00221146B1A015F06BFA15F087FFF0
:100F300016F0ACF815F0F4FA16F0FCFDB2490860B2
:100F400025F048FF0A201CF06DFFFBE79949D1F816
:100F5000980128B10020C1F89801ACA017F086BB19
:100F60000120F8E72DE9F0438BB010F02EFE09A820
:100F70000EF0ABFD012109AA08460CF06AF9012127
:100F8000402009F03DFC042026F08AFA1DF046FEC0
:100F900010F0F0FEDFF87C9299F80010491C89F8F7
:100FA000001010F0EBFE844809AB00229AA18838AB
:100FB0000EF0A3FA804809AB14229AA160380DF014
:100FC00094FF7D4809AB082299A130380DF08DFFC0
:100FD00009AB002299A178480CF017FD09AD002457
:100FE000AFF297000221CDE9001073486423142268
:100FF00095A12830CDE9024510F0EDF90326CDE9A1
:1010000006464FF40060CC210895CDE90210904AC5
:101010000A200594CDE9000204940023AFF24512A2
:101020008B488CA1C4380EF0E6FFCDE90646802738
:101030008C4904204FF00C08089505940023AFF26A
:1010400081128DE803018748CDE9037486A1C43875
:101050000EF0D1FFCDE90646B80033210895CDE961
:101060000210844A06200594CDE90002049400236E
:10107000AFF6FF127F4880A1C4380EF0BCFFCDE967
:10108000064680490720089505940023AFF65B3299
:101090008DE803017B48CDE903747BA1C4380EF0D1
:1010A000AAFFCDE906467B49082008950594002350
:1010B000AFF6C9328DE803017648CDE9037476A115
:1010C000C4380EF098FFCDE9064678490920089506
:1010D00005940023AFF68B428DE803017348CDE9F8
:1010E000037473A1C4380EF086FFCDE90646744937
:1010F0000520089505940023AFF6ED428DE8030125
:101100006F48CDE903746FA1C4380EF074FF244812
:1011100009A9E0300FF069FD10F02CFE99F80010DD
:10112000491E11F0FF0189F8001009D168490988AA
:1011300031B110F023FE0CF005FC0BB0BDE8F083DC
:1011400010F01CFEF9E78AB008F08CFC4FF48066C2
:10115000304608F089FE4FF4E134204608F000FDE7
:1011600000F058FA00F0C2FF00F09CFA07F09AFC79
:1011700008F050FB204607F02FFE56A017F076FA35
:10118000204607F07BFF204608F0EBF857A017F049
:101190006DFA5CA008F022FA642008F0A8FCB7E021
:1011A000F41D0020208000200000002000440040AA
:1011B00000802142000023427C6700208DA40108AA
:1011C00079A801087DAD0108A9BC0108151702081E
:1011D000013E0208E1440208A94B02081D4D020825
:1011E000DD500208A1530208E9540208303A2F7773
:1011F000616C6C70617065722F53515F323430587E
:101200003332302E626D7000FC01002074696D6510
:10121000310D0A002401002053594E435F53454DC0
:101220000000000044415441204D7367000000005D
:1012300041545F4A4459204D736700004576656EFE
:101240007420466C61677300746D72310000000099
:10125000F4460020456D77696E64656D6F2074619A
:10126000736B00005C300020546F756368207461FC
:10127000736B0000E43500204C65643020746173AA
:101280006B000000A83E002041545F4A445920747E
:1012900061736B006C410020466C61677370726F04
:1012A00063657373207461736B0000003044002029
:1012B000466F6E74757064617461207461736B0045
:1012C000203300204B6579207461736B00000000AF
:1012D000E80000205553415254335F444D415F496B
:1012E000444C455F574946490D0A00005553415249
:1012F00054325F444D415F49444C455F4D4553482E
:101300000D0A000041542B524F4C45350D0A000088
:101310004CA008F063F9642008F0E9FB4DA008F048
:101320005DF9642008F0E3FB4EA008F057F9642053
:1013300008F0DDFB04F02EF8002008F0C5FC0120C9
:1013400008F0C2FC14F08EF8494C0122AFF620419F
:10135000206812F057FB012246A1606812F052FB90
:1013600010244FF6FF7515E043A0CDE9004010238F
:10137000C8225A211E2003F0E4FFC82008F0B7FB62
:101380005623E6225A211E20009503F0C4FDC820F2
:1013900008F0ADFB06F0DDFA0028E5D114F06DFE93
:1013A000B0B139A0CDE900401023C82246211E204B
:1013B00003F0C7FFAFF6884310225A211E2014F015
:1013C00012FD4FF4FA6008F092FB284600F05BFE35
:1013D00005F071FD09A80BF0CEFD10F0CBFC2D4CF3
:1013E0002178491C217010F0C9FC002006AB09AA25
:1013F0000321059083E80700274B6622CDE90013FF
:10140000CDE9022604900346AFF2A742224823A169
:10141000C4380EF0F0FD10F0ADFC2178491E11F03B
:10142000FF01217007D12049098821B110F0A6FCE5
:101430000CF088FA01E010F0A1FC09A80BF0C7FF3E
:10144000FEE7000041542B4E4554494431313232BD
:101450000D0A000041542B4D41444452303030318C
:101460000D0A000041542B52455345540D0A00000B
:10147000C4010020313A00005344204361726420CB
:101480004661696C65642100466F6E742045727216
:101490006F72210024010020981F00207374617274
:1014A00074207461736B0000E80000207047FEE751
:1014B000FEE7FEE7FEE77047704700000CB500222C
:1014C0004C4800920192016841F4803101604FF470
:1014D000A063016801F4003101910099491C009159
:1014E000019911B900999942F3D10168890333D563
:1014F0000121019140490A6842F010020A600A681D
:1015000022F003020A600A6842F002020A6041689F
:10151000416041684160416841F4806141604168D7
:1015200021F47C114160416841F4E8114160016897
:1015300041F08071016001688901FCD5416821F0AA
:1015400003014160416841F0020141604168C1F31B
:1015500081010229FAD10CBD01920CBD254810B5BC
:10156000016841F0010101604168244A1140416075
:101570000168234A11400160016821F48021016063
:10158000416821F4FE0141604FF41F018160FFF7C3
:1015900095FF1C494FF00060086010BD154A10B55A
:1015A0005068194B10F00C01184803D0042901D0E1
:1015B000082901D0036012E05168536801F47011EA
:1015C0004FF0020413F4803F04EB914102D05368C2
:1015D0009B0301D50E4B00E00B4B59430160516852
:1015E0000A4AC1F30311121D515C0268CA4002602D
:1015F00010BD000000100240002002400000FFF873
:10160000FFFFF6FE08ED00E000127A000400002063
:1016100000093D0038B50121482009F0FAF82024DE
:10162000ADF8004010208DF8030003201B4D8DF80D
:1016300002006946284608F004FF2021284608F0E9
:101640006AFFADF80040164C6946204608F0F9FEE6
:101650002021204608F05FFF0121ADF80010694607
:10166000204608F0EEFE0121204608F056FF022138
:10167000ADF800106946204608F0E3FE022120463E
:1016800008F04BFF4021ADF800106946204608F0F5
:10169000D8FE4021204608F040FF38BD000C014034
:1016A0000018014008B50121442009F0B2F81C20BF
:1016B000ADF8000048208DF803006946364808F070
:1016C000C0FE0120ADF8000028208DF80300694617
:1016D000324808F0B6FE08BD2DE9F041304C2F4FDE
:1016E0002D4D012608B1267001E02078A0B110210F
:1016F000284608F0FCFEB0B10821284608F0F7FEA5
:1017000088B10421284608F0F2FE60B10121384674
:1017100008F0EDFE012806D01021284608F0E7FE6B
:10172000012824D035E00A2008F0E1F900202070DB
:101730001021284608F0DBFE80B10821284608F079
:10174000D6FE70B10421284608F0D1FE58B101211F
:10175000384608F0CCFE012807D01AE00120BDE889
:10176000F0810220FBE70320F9E70420F7E70821D6
:10177000284608F0BCFE01280BD10421284608F0B9
:10178000B6FE012805D10121384608F0B0FE00B9A7
:1017900026700020E3E70000001801400008014027
:1017A00018000020FE4908807047FD49891C088008
:1017B0007047FB4808B5801C0088ADF80000BDF8F4
:1017C000000008BDF64A1080901C01807047F44963
:1017D00010B50880052008F06BF9BDE81040E8E777
:1017E000F048EF49008908807047ED49891C08805E
:1017F0007047C0F34511C20AC00200EB411010440B
:1018000080B27047401EC0B2FCD270472DE9F04F45
:10181000E44F0B463A46BD880C0ADFF884B3918941
:101820005289A5F513464FEA102C0BF1020A413EEE
:101830001DD0A5F5A646103E19D03E46BE4696F8E8
:1018400006903688A5F5D047A6EB0008A8F1010858
:10185000043F17D0A5F5C857633F28D0A5F5AA4780
:101860007646103F51D0B9F1010F63D064E0ABF878
:1018700000205246AAF800C0C0B2AAF80000ABF897
:1018800000100FE0B9F1010F01D11FFA88F0ABF899
:101890000020050A5246AAF80050C0B2AAF800007B
:1018A000ABF800101480D8B21080BDE8F08FB9F109
:1018B000000F1BD0ABF800205246AAF800C0C0B2FF
:1018C000AAF80000761E300AAAF80000F0B21080D4
:1018D000ABF8001011461480D8B21080BEF8020098
:1018E000401E020A0A80C0B20880DEE71FFA88F0B4
:1018F000ABF8002000265246AAF80060AAF8006063
:10190000060AAAF80060C0B2E1E7ABF80020AAF826
:1019100000C0521CABF80020C0B2AAF80000ABF81F
:101920000010AAF80040491CABF80010D8B2AAF881
:101930000000BAE71FFA88F001461046FFF742FFA1
:10194000B089BDE8F04F19463CE7F0B5954E00244C
:1019500025463288824202D972888A4201D8002004
:10196000F0BDFFF753FFB08849F241378C4B41F689
:10197000631C45F2103145F21052B84208D0A0F570
:10198000D04EBEF1040E03D0884201D0604502D192
:101990004FF02E0E06E0904202D14FF4385E01E087
:1019A0004FF0220EA3F800E0A0F51343203B03D133
:1019B0000220401EC0B2FCD2FFF7FBFEB388634595
:1019C000CED00220401EC0B2FCD2FFF7F2FE844609
:1019D000B088B84203D0884201D090420CD1022096
:1019E000401EC0B2FCD2FFF7E4FE05460CF0FF003B
:1019F0004FF6FF7303EA0024B088A0F51343253B9C
:101A00001FD0A0F58A43353B1BD0A0F58A43313B5C
:101A100017D0A0F53543053B13D0A0F54543053B52
:101A20000FD0B84203D0884201D090420BD14FEA88
:101A3000DC204FEAC020A10A40EA411040EAD5204C
:101A4000F0BD6046F0BDBDE8F0406046D1E65548C7
:101A500053498088A0F51342413A13D0A0F5D042F3
:101A6000043A0FD0A0F5A642103A0BD0A0F5C85208
:101A7000633A07D0A0F5AA42103A05D040F273119C
:101A800007209FE6292001E04FF42450088070478A
:101A9000444843498088A0F51342413A12D0A0F54A
:101AA000D042043A0ED0A0F5A642103A0AD0A0F5D2
:101AB000C852633A06D0A0F5AA42103A04D00021D9
:101AC00007207FE6282001E04FF42050088070476F
:101AD000F0B5344D00232946AA79898846F60407D3
:101AE00041F66316012A01D02AB11DE0B9421BD08C
:101AF000B14202D118E0B14216D1082814D2DFE871
:101B000000F00406080A0C0E101206200CE0072054
:101B10000AE0042008E0052006E0012004E000209F
:101B200002E0032000E00220A1F5134C45F2103240
:101B300045F21054BCF1410C07D0B94205D0914296
:101B400003D0A14201D0B1427AD1082812D2DFE8F5
:101B500000F0110406080A0C0E1080230AE040234E
:101B600008E0C02306E0202304E0602302E0A02375
:101B700000E0E023A14202D14FF4585000E03620AB
:101B8000914205D0A14203D0B14201D043F00803F5
:101B9000B94201D143F002031946FFF713FE03E0F7
:101BA000FE07006C506D0020AA88B2420AD0980649
:101BB0002888698802D5884202D303E0884201D987
:101BC00029806880FE48811CA2426A89028021D156
:101BD00000230B80531C038000230B80931C038085
:101BE0002B885B1E1C0A0C80D21C0280DAB20A8091
:101BF000AA89028000230B80531C038000230B80E2
:101C0000931C03806B885B1E1C0A0C80D21C028014
:101C1000D8B212E000220A800A802A88521E130AD3
:101C20000B80D2B20A80AA89028000200880088036
:101C30006888401E020A0A80C0B20880F0BDFFE733
:101C4000082812D2DFE800F0040608110A0C0E1072
:101C500030230AE0102308E0202306E0382304E0C4
:101C6000282302E0182300E00823BDE8F040032009
:101C700043F48051A6E500B5FFF7C8FDFFF7B0FDBE
:101C8000D048CF49891C0088088000BD2DE9F04F5D
:101C9000DFF83483934642460B46B8F804500C0AEA
:101CA000DFF81CA39189060A5289A5F513470AF1AA
:101CB0000209413F19D0A5F5A647103F15D0A5F55B
:101CC000AA47103F1CD04746A5F5C85CBE793F889F
:101CD0003F1A7F1EBCF1630C27D0A5F5D04CBCF198
:101CE000040C3AD0012E4AD04AE0AAF800204A4615
:101CF000A9F80060C0B2A9F80000AAF800103AE004
:101D0000AAF80020A9F80060521CAAF80020C0B26E
:101D1000A9F80000AAF80010A9F80040491CAAF888
:101D20000010D8B2A9F8000033E006B9B8B2AAF89A
:101D30000020050A4A46A9F80050C7B2A9F8007069
:101D4000A9F80050C0B2A9F80000AAF80010A9F83C
:101D50000040D8B2A9F800000DE0012E00D1B8B2C1
:101D6000AAF80020050A4A46A9F80050C0B2A9F80E
:101D70000000AAF800101480D8B2108009E0B8B2B0
:101D800001461046FFF71EFDB8F80C001946FFF794
:101D900019FDB8F80810AAF80010A9F800B084E5F9
:101DA000874A10B5BE211180941C0521218034F092
:101DB000E6FC4FF06632854B34F030FD34F0B2FC77
:101DC000208001202080FF20208000202080208093
:101DD00010BD2DE9F04F7C492A232B24898845F238
:101DE000105A4FF4305B4FF4285E4FF448754FF0B3
:101DF000F00C49F241394FF4A07745F210364FF418
:101E0000F07280B170484FF00108494580F80680B3
:101E10000780A0F802C001D0B1423ED12C25058137
:101E20004381848157E068484FF00008494580F8B5
:101E30000680A0F800C0478006D0A1F5D04CBCF1C8
:101E4000040C01D0B1420CD12C2505814381A1F5B0
:101E5000D0438481043B01D0B14244D10780428009
:101E600041E0514507D1A0F808B0A0F80AE04FF4CE
:101E70002C5181810EE0A1F5C856633E06D0222187
:101E8000018120214181212181812CE02C210181AE
:101E9000448183810280458025E0A1F5D04CBCF1CE
:101EA000040C09D051450BD1A0F808B0A0F80AE005
:101EB0004FF42C53838120E02C250581448109E0D7
:101EC000A1F5C85CBCF1630C11D02223038121234E
:101ED000438120238381A1F5D043043B01D0B1424B
:101EE00001D102804780BDE8F04F0020F0E54FF0BF
:101EF0002C0CA0F808C04381848105804280EAE769
:101F00002DE9FC4F044691464844401E86B2C8184D
:101F1000401E83B2009004EB0900401EC0F3072E60
:101F2000DFF8A4C000980D46C0F3072B6046BCF84C
:101F300004204FEA112881894089A2F513474FEA0E
:101F4000142A413F10D0A2F5A647103F0CD0A2F5AD
:101F5000D047043F08D09CF8067041F6631C0197F7
:101F6000012F13D1624511D1154F3880B81CA0F84C
:101F700000A0E2B20280A0F800E0F2B20280398054
:101F8000A0F80080E9B20180594626E00E4F624574
:101F90003F8827D1A7EB0902121B094C009B92B284
:101FA0009BB22080160AA01C0680D6B206804A4446
:101FB000521E160A0680D2B20280218008E000007C
:101FC000FE07006C1A000020506D00206666044079
:101FD000A0F80080E9B20180190A0180D9B201801D
:101FE000BDE8FC8FA2F5A04CBCF5A26C1FD00198F7
:101FF00001283FD0B44621462E4650204FF05109CB
:102000004FF052085327FFF7DDFB61464846FFF7C4
:10201000D9FB31464046FFF7D5FB19463846FFF756
:10202000D1FB29462046BDE8FC4FFFF7EFBBFE4A37
:102030001080971CA7F800A000F1010CA2F800C0C6
:10204000E4B23C80841C1480A7F800E0C01C10801F
:10205000F0B238801180A7F80080481C1080E8B2E8
:102060003880881C1080A7F800B0C91C1180D8B235
:102070003880B5E7B81B401E86B2381B9C46401E10
:10208000294683B2B9E72DE9F043E84F064600241C
:1020900038887D884543B888A0F5D041043902D1FD
:1020A000B879012808D000210846FFF7AFFBFFF7F9
:1020B00097FBDD48801C15E00020B8714FF02A091D
:1020C000A7F80A904FF02B08A7F80C800146FFF7FD
:1020D0009DFB0120B871A7F80A80A7F80C90E6E7ED
:1020E0000680641CAC42FBD3BDE8F0832DE9F04FC1
:1020F00001210E029FB0304608F082FB01214FF40F
:10210000B47008F086FB0127ADF83C704FF0100862
:102110008DF83F8003248DF83E400FA9C44808F095
:1021200090F94CF23370ADF83C0018258DF83F5013
:102130008DF83E400FA9BF4808F083F94FF6807034
:10214000ADF83C008DF83F508DF83E400FA9BA48DD
:1021500008F077F941F20100ADF83C008DF83F50EE
:102160008DF83E400FA9B54808F06BF900200F210B
:10217000CDE918011A901B901C901D901090CDE98C
:102180001104CDE91607149006211590CDE9001031
:10219000CDE90208139004903101CDE908010690C1
:1021A000059007908900CDE90A010C9017A80D90C1
:1021B00010A80E90684607F0E3FE0121062008F003
:1021C00014F8322007F093FC0020FFF700FB974D36
:1021D000954C49F24139A88046F6040A45F2103B75
:1021E00045F210574FF6FF78FF2804D3404502D040
:1021F000B0F5134F70D1D3202080FFF7DAFAA88012
:10220000FFF7D7FAA880FFF7D4FA08EA0020414682
:10221000A880FFF7CEFAAA881043A88048455BD073
:10222000BF202080FFF7C5FAA880FFF7C2FAA88078
:10223000FFF7BFFAA880FFF7BCFA01EA0020A880E8
:10224000FFF7B7FAAA881043A880504544D0D4209D
:102250002080FFF7AEFAA880FFF7ABFAA880FFF75F
:10226000A8FA01EA0020A880FFF7A3FAAA88104381
:10227000A880584530D04FF45A402080FFF799FA93
:10228000A8804FF45B402080FFF793FA01EA00201A
:10229000A8804FF45C402080FFF78BFAAA88104397
:1022A000A880B0F5004F7DD0B84215D0A120208085
:1022B000FFF77FFAA880FFF77CFA01EA0020A880E8
:1022C000FFF777FAA9880843A0F5AE41A8806139E5
:1022D00002D141F66310A880A98859A016F0C6F96A
:1022E000A888514DAD1C48457ED1CF2020800020CC
:1022F0002880C120288030202880ED202080642084
:102300002880032028801220288081202880E8202F
:10231000208085202880102028807A202880CB20CB
:102320002080392028802C202880002028803420FC
:10233000288002202880F720208020202880EA2082
:102340002080002028802880C02020801B2028801A
:10235000C120208001202880C520208030202880B6
:102360002880C7202080B720288036202080482061
:1023700028803A20208055202880B120208000200D
:1023800028801A202880B62020800A202880A220B9
:102390002880F22020800020288026202080012014
:1023A000288000E066E0E02020800F2028802A209E
:1023B000288028202880082028800E2028800820B7
:1023C000288054202880A9202880432028800A20A3
:1023D00028800F20288000202880288028802880BE
:1023E000E1202080002000E046E0288015202880A1
:1023F0001720288007202880112028800620288088
:102400002B202880562028803C20288005202880EA
:10241000102028800F2028803F20288028800F202F
:1024200028802B20208013E0FE07006C506D0020D8
:10243000000C014000140140001801400020014040
:10244000204C43442049443A25780D0A00000000FE
:10245000002028802880012028803F2028802A20F2
:1024600020800020288028802880EF2028801120CC
:1024700020806EE0AF802FE7504571D11120208081
:10248000142007F034FBD020208007202880422031
:1024900028801D202880D1202080002028801A201C
:1024A000288009202880D220208001202880222016
:1024B0002880C0202080102028803B2028800020F9
:1024C00028800220288011202880C5202080032019
:1024D0002880C820208000202880252028802120D6
:1024E000288005202880002028800A202880652058
:1024F00028802520288077202880502028800F20C1
:10250000288000202880F820208001202880FE20BC
:102510002080002028800220288020202080362053
:102520002080082028803A202080552028802B20D9
:102530002080002028802880012028803F202880BB
:102540002A20208000202880288001202880DF2069
:102550002880782007F0CBFA292001F02EBCFFE775
:1025600058457DD1ED20208001202880FE20288044
:10257000EE202080DE20288021202880F12020806D
:1025800001202880DF20208010202880C420208087
:102590008F202880C620208000202880E2202880EC
:1025A00028802880BF202080AA202880B02020807A
:1025B0000D202880002028800D20288000202880E1
:1025C00011202880002028801920288000202880C1
:1025D00021202880002028802D202880002028808D
:1025E0003D202880002028805D2028800020288031
:1025F0005D20288000202880B12020808020288035
:10260000002028808B202880002028809620288089
:1026100000202880B22020800020288028800220EE
:102620002880002028800320288000202880B320D4
:1026300020800020288028802880288028802880EA
:10264000288028802880288028802880288028804A
:10265000288028802880288028802880288000E002
:10266000FEE3288028802880B42020808B202880CA
:10267000002028809620288000202880A120288003
:1026800000202880B520208002202880002028807B
:102690000320288000202880042028800020288013
:1026A000B6202080002028802880B72020800020AD
:1026B000288028803F202880002028805E202880D5
:1026C0000020288064202880002028808C202880FA
:1026D00000202880AC20288000202880DC20288052
:1026E00000202880702028800020288090202880CA
:1026F00000202880EB20288000202880DC202880F3
:1027000000202880B8202080002028802880288071
:1027100028802880288028802880BA2020802420B3
:1027200028800020288028802880C1202080202028
:102730002880002028805420288000202880FF2026
:10274000288000202880C22020800A2028800020A5
:1027500028800420288000202880C32020803C205E
:102760002880002028803A202880002028803920D6
:1027700028800020288037202880002028803C20C6
:1027800028800020288036202880002028803220C1
:102790002880002028802F202880002028802C20BE
:1027A00028800020288029202880002028802620BA
:1027B00028800020288024202880002028802420B1
:1027C00028800020288023202880002028803C208A
:1027D0002880002028803620288000202880322071
:1027E0002880002028802F202880002028802C206E
:1027F000288000202880292028800020288026206A
:102800002880002028802420288000202880242060
:102810002880002028802320288000202880C420B1
:102820002080622028800020288005202880002029
:1028300028808420288000202880F0202880002004
:1028400028801820288000202880A42028800020AC
:1028500028801820288000202880502028800020F0
:1028600028800C2028800020288017202880002025
:1028700028809520288000202880F32028800020B0
:102880002880E620288000202880C5202080322053
:10289000288000202880442028800020288065206F
:1028A000288000202880762028800020288088200A
:1028B000288000202880C62020802020288000201A
:1028C00028801720288000202880012028800020D0
:1028D0002880C72020800020288028802880288009
:1028E000C820208000202880288028802880C920B7
:1028F0002080002028802880288028802880288028
:102900002880288028802880288028802880288087
:1029100028802880E0202080162028800020288021
:102920001C2028800020288021202880002028804A
:1029300036202880002028804620288000202880FB
:1029400052202880002028806420288000202880B1
:102950007A202880002028808B2028800020288052
:102960009920288000202880A82028800020288006
:10297000B920288000202880C420288000202880BA
:10298000CA20288000202880D2202880002028808B
:10299000D920288000202880E0202880002028805E
:1029A000F320288000202880E12020801620288025
:1029B000002028801C2028800020288022202880B9
:1029C000002028803620288000202880452028806C
:1029D0000020288052202880002028806420288021
:1029E000002028807A202880002028808B202880C2
:1029F000002028809920288000202880A820288076
:102A000000202880B920288000202880C420288029
:102A100000202880CA20288000202880D2202880FA
:102A200000202880D820288000202880E0202880CE
:102A300000202880F320288000202880E2202080A9
:102A400005202880002028800B2028800020288056
:102A50001B20288000202880342028800020288007
:102A600044202880002028804F20288000202880B3
:102A7000612028800020288079202880002028805C
:102A80008820288000202880972028800020288007
:102A9000A620288000202880B720288000202880B9
:102AA000C220288000202880C7202880002028807D
:102AB000D120288000202880D6202880002028804F
:102AC000DD20288000202880F32028800020288016
:102AD000E320208005202880002028800A202880EC
:102AE000002028801C202880002028803320288077
:102AF0000020288044202880002028805020288022
:102B000000202880622028800020288078202880CB
:102B10000020288088202880002028809720288076
:102B200000202880A620288000202880B720288028
:102B300000202880C220288000202880C7202880EC
:102B400000202880D120288000202880D5202880BF
:102B500000202880DD20288000202880F320288085
:102B600000202880E4202080012028800020288068
:102B70000120288000202880022028800020288032
:102B80002A202880002028803C20288000202880BF
:102B90004B202880002028805D202880002028806D
:102BA000742028800020288084202880002028800D
:102BB0009320288000202880A220288000202880C0
:102BC000B320288000202880BE2028800020288074
:102BD000C420288000202880CD2028800020288044
:102BE000D320288000202880DD2028800020288015
:102BF000F320288000202880E520208000202880E5
:102C000028802880288002202880002028802920F1
:102C10002880002028803C202880002028804B200D
:102C20002880002028805D202880002028807420B3
:102C3000288000202880842028800020288093205D
:102C4000288000202880A220288000202880B3200F
:102C5000288000202880BE20288000202880C420D2
:102C6000288000202880CD20288000202880D320A4
:102C7000288000202880DC20288000202880F32065
:102C8000288000202880E620208011202880002035
:102C9000288034202880002028805620288000208A
:102CA0002880762028800020288077202880002017
:102CB0002880662028800020288088202880002006
:102CC00028809920288000202880BB202880002090
:102CD00028809920288000202880662028800020D5
:102CE000288055202880002028805520288000201A
:102CF000288045202880002028804320288000202C
:102D000028804420288000202880E720208032204E
:102D100028800020288055202880002028807620C8
:102D200028800020288066202880002028806720B6
:102D30002880002028806720288000202880872085
:102D40002880002028809920288000202880BB200F
:102D50002880002028809920288000202880772043
:102D600028800020288044202880002028805620A9
:102D700028800020288023202880002028803320DD
:102D80002880002028804520288000202880E820F6
:102D900020800020288028809920288000202880FA
:102DA00087202880002028808820288000202880F4
:102DB0007720288000202880662028800020288016
:102DC0008820288000202880AA20288000202880B1
:102DD000BB2028800020288099202880002028807F
:102DE0006620288000202880552028800020288008
:102DF000552028800020288044202880002028801A
:102E00004420288000202880552028800020288009
:102E1000E9202080AA20288000202880288028807F
:102E20002080AA202880CF20208000202880288091
:102E30002880288028802880288028802880288052
:102E40002880288028802880288028802880F020DA
:102E5000208000202880502028800020288000E04A
:102E60002CE028802880F320208000202880F92072
:102E700020800620288010202880292028800020FB
:102E800028803A202080552028801120208064202E
:102E900006F02DFE2920208035202080002028806B
:102EA00051202080FF202880532020802C20288043
:102EB00055202080822028802C20FDE3B8427CD140
:102EC0004FF4704355211846FEF77CFC4FF2010584
:102ED000AA212846FEF776FC6E1C52213046FEF7EA
:102EE00071FCAF1C08213846FEF76CFC4FF2040C55
:102EF00001216046FEF766FC0D214FF43040FEF7DD
:102F000061FC0D214BF20100FEF75CFC0D214BF240
:102F10000200FEF757FC4FF4364934214846FEF7CD
:102F200051FC34214BF20160FEF74CFC34214BF292
:102F30000260FEF747FC4FF4314A0D215046FEF780
:102F400041FC4BF2011B0D215846FEF73BFC0D21C5
:102F50004BF20210FEF736FC34214FF43740FEF7F7
:102F600031FC34214BF20170FEF72CFC34214BF282
:102F70000270FEF727FC00214FF43240FEF722FCDE
:102F800000214BF20120FEF71DFC00214BF2022034
:102F9000FEF718FC24214FF43840FEF713FC2421DF
:102FA0004BF60100FEF70EFC24214BF60200FEF763
:102FB00009FC01214FF43F4000E0FCE3FEF702FC76
:102FC0000F214FF43340FEF7FDFB0F214BF2013090
:102FD000FEF7F8FB0F214BF20230FEF7F3FB342132
:102FE0004FF43940FEF7EEFB34214BF60110FEF7AB
:102FF000E9FB34214BF60210FEF7E4FB08214FF405
:103000003540FEF7DFFB08214BF20150FEF7DAFBFB
:1030100008214BF20250FEF7D5FB03214FF442404A
:10302000FEF7D0FB24214FF43A40FEF7CBFB2421DE
:103030004BF60120FEF7C6FB24214BF60220FEF7DB
:10304000C1FB00214FF43C40FEF7BCFB78214BF65E
:103050000140FEF7B7FB00214BF60240FEF7B2FB42
:1030600000214FF43D40FEF7ADFB78214BF60150B7
:10307000FEF7A8FB00214BF60250FEF7A3FB002150
:103080004FF43E40FEF79EFB64214BF60160FEF7D5
:1030900099FB00214FF45140FEF794FB33214DF290
:1030A0000110FEF78FFB00214DF20210FEF78AFBA4
:1030B00034214DF20310FEF785FB00214DF2041080
:1030C000FEF780FB3A214DF20510FEF77BFB002155
:1030D0004DF20610FEF776FB4A214DF20710FEF77F
:1030E00071FB00214DF20810FEF76CFB5C214DF2E4
:1030F0000910FEF767FB00214DF20A10FEF762FB94
:1031000081214DF20B10FEF75DFB00214DF20C10FA
:10311000FEF758FBA6214DF20D10FEF753FB0021E0
:103120004DF20E10FEF74EFBE5214DF20F10FEF7AB
:1031300049FB01214DF21010FEF744FB13214DF223
:103140001110FEF73FFB01214DF21210FEF73AFB82
:1031500054214DF21310FEF735FB01214DF21410EE
:10316000FEF730FB82214DF21510FEF72BFB0121FB
:103170004DF21610FEF726FBCA214DF21710FEF78E
:1031800021FB02214DF21810FEF71CFB00214DF22D
:103190001910FEF717FB02214DF21A10FEF712FB71
:1031A00001214DF21B10FEF70DFB02214DF21C1008
:1031B000FEF708FB34214DF21D10FEF703FB022140
:1031C0004DF21E10FEF7FEFA67214DF21F10FEF7BA
:1031D000F9FA02214DF22010FEF7F4FA84214DF2A3
:1031E0002110FEF7EFFA02214DF22210FEF7EAFA63
:1031F000A4214DF22310FEF7E5FA02214DF224102E
:10320000FEF7E0FAB7214DF22510FEF7DBFA0221B6
:103210004DF22610FEF7D6FACF214DF22710FEF719
:10322000D1FA02214DF22810FEF7CCFADE214DF240
:103230002910FEF7C7FA02214DF22A10FEF7C2FA52
:10324000F2214DF22B10FEF7BDFA02214DF22C10A7
:10325000FEF7B8FAFE214DF22D10FEF7B3FA032166
:103260004DF22E10FEF7AEFA10214DF22F10FEF7A0
:10327000A9FA03214DF23010FEF7A4FA33214DF2E2
:103280003110FEF79FFA03214DF23210FEF79AFA41
:103290006D214DF23310FEF795FA00214FF45240A4
:1032A000FEF790FA33214DF20120FEF78BFA002150
:1032B0004DF20220FEF786FA34214DF20320FEF78C
:1032C00081FA00214DF20420FEF77CFA3A214DF2FA
:1032D0000520FEF777FA00214DF20620FEF772FA7C
:1032E0004A214DF20720FEF76DFA00214DF2082029
:1032F000FEF768FA5C214DF20920FEF763FA00211F
:103300004DF20A20FEF75EFA81214DF20B20FEF706
:1033100059FA00214DF20C20FEF754FAA6214DF285
:103320000D20FEF74FFA00214DF20E20FEF74AFA6B
:10333000E5214DF20F20FEF745FA01214DF2102054
:10334000FEF740FA13214DF21120FEF73BFA01215E
:103350004DF21220FEF736FA54214DF21320FEF7FB
:1033600031FA01214DF21420FEF72CFA82214DF2A0
:103370001520FEF727FA01214DF21620FEF722FA5A
:10338000CA214DF21720FEF71DFA02214DF2182036
:10339000FEF718FA00214DF21920FEF713FA022168
:1033A0004DF21A20FEF70EFA01214DF21B20FEF716
:1033B00009FA02214DF21C20FEF704FA34214DF2E5
:1033C0001D20FEF7FFF902214DF21E20FEF7FAF94B
:1033D00067214DF21F20FEF7F5F902214DF2202062
:1033E000FEF7F0F984214DF22120FEF7EBF90221DE
:1033F0004DF22220FEF7E6F9A4214DF22320FEF73C
:10340000E1F902214DF22420FEF7DCF9B7214DF25B
:103410002520FEF7D7F902214DF22620FEF7D2F93A
:10342000CF214DF22720FEF7CDF902214DF22820C1
:10343000FEF7C8F9DE214DF22920FEF7C3F902217B
:103440004DF22A20FEF7BEF9F2214DF22B20FEF7B5
:10345000B9F902214DF22C20FEF7B4F9FE214DF20C
:103460002D20FEF7AFF903214DF22E20FEF7AAF929
:1034700010214DF22F20FEF7A5F903214DF2302047
:10348000FEF7A0F933214DF23120FEF79BF903211D
:103490004DF23220FEF796F96D214DF23320FEF702
:1034A00091F900214FF45340FEF78CF933214DF28E
:1034B0000130FEF787F900214DF20230FEF782F964
:1034C00034214DF20330FEF77DF900214DF2043036
:1034D000FEF778F93A214DF20530FEF773F9002135
:1034E0004DF20630FEF76EF94A214DF20730FEF735
:1034F00069F900214DF20830FEF764F95C214DF2C4
:103500000930FEF75FF900214DF20A30FEF75AF953
:1035100081214DF20B30FEF755F900214DF20C30B0
:10352000FEF750F9A6214DF20D30FEF74BF90021C0
:103530004DF20E30FEF746F9E5214DF20F30FEF761
:1035400041F901214DF21030FEF73CF913214DF203
:103550001130FEF737F901214DF21230FEF732F942
:1035600054214DF21330FEF72DF901214DF21430A4
:10357000FEF728F982214DF21530FEF723F90121DB
:103580004DF21630FEF71EF9CA214DF21730FEF744
:1035900019F902214DF21830FEF714F900214DF20D
:1035A0001930FEF70FF902214DF21A30FEF70AF931
:1035B00001214DF21B30FEF705F902214DF21C30BE
:1035C000FEF700F934214DF21D30FEF7FBF8022121
:1035D0004DF21E30FEF7F6F867214DF21F30FEF770
:1035E000F1F802214DF22030FEF7ECF884214DF283
:1035F0002130FEF7E7F802214DF22230FEF7E2F823
:10360000A4214DF22330FEF7DDF802214DF22430E3
:10361000FEF7D8F8B7214DF22530FEF7D3F8022196
:103620004DF22630FEF7CEF8CF214DF22730FEF7CF
:10363000C9F802214DF22830FEF7C4F8DE214DF220
:103640002930FEF7BFF802214DF22A30FEF7BAF812
:10365000F2214DF22B30FEF7B5F802214DF22C305D
:10366000FEF7B0F8FE214DF22D30FEF7ABF8032146
:103670004DF22E30FEF7A6F810214DF22F30FEF756
:10368000A1F803214DF23030FEF79CF833214DF2C2
:103690003130FEF797F803214DF23230FEF792F801
:1036A0006D214DF23330FEF78DF800214FF4544078
:1036B000FEF788F8332100E07FE34DF20140FEF78A
:1036C00081F800214DF20240FEF77CF834214DF2E2
:1036D0000340FEF777F800214DF20440FEF772F840
:1036E0003A214DF20540FEF76DF800214DF20640FB
:1036F000FEF768F84A214DF20740FEF763F8002113
:103700004DF20840FEF75EF85C214DF20940FEF7ED
:1037100059F800214DF20A40FEF754F881214DF28C
:103720000B40FEF74FF800214DF20C40FEF74AF82F
:10373000A6214DF20D40FEF745F800214DF20E4056
:10374000FEF740F8E5214DF20F40FEF73BF801216E
:103750004DF21040FEF736F813214DF21140FEF7FE
:1037600031F801214DF21240FEF72CF854214DF2B0
:103770001340FEF727F801214DF21440FEF722F81E
:1037800082214DF21540FEF71DF801214DF2164041
:10379000FEF718F8CA214DF21740FEF713F8022180
:1037A0004DF21840FEF70EF800214DF21940FEF7D9
:1037B00009F8022100E002E34DF21A40FEF702F898
:1037C00001214DF21B40FDF7FDFF02214DF21C408F
:1037D000FDF7F8FF34214DF21D40FDF7F3FF022104
:1037E0004DF21E40FDF7EEFF67214DF21F40FDF741
:1037F000E9FF02214DF22040FDF7E4FF84214DF264
:103800002140FDF7DFFF02214DF22240FDF7DAFFF4
:10381000A4214DF22340FDF7D5FF02214DF22440B3
:10382000FDF7D0FFB7214DF22540FDF7CBFF022178
:103830004DF22640FDF7C6FFCF214DF22740FDF7A0
:10384000C1FF02214DF22840FDF7BCFFDE214DF201
:103850002940FDF7B7FF02214DF22A40FDF7B2FFE4
:10386000F2214DF22B40FDF7ADFF02214DF22C402D
:10387000FDF7A8FFFE214DF22D40FDF7A3FF032128
:103880004DF22E40FDF79EFF10214DF22F40FDF727
:1038900099FF03214DF23040FDF794FF33214DF2A3
:1038A0003140FDF78FFF03214DF23240FDF78AFFD3
:1038B0006D214DF23340FDF785FF00214FF4554057
:1038C000FDF780FF33214DF20150FDF77BFF002112
:1038D0004DF20250FDF776FF34214DF20350FDF713
:1038E00071FF00214DF20450FDF76CFF3A214DF2BB
:1038F0000550FDF767FF00214DF20650FDF762FF0E
:103900004A214DF20750FDF75DFF00214DF20850AE
:10391000FDF758FF5C214DF20950FDF753FF0021E0
:103920004DF20A50FDF74EFF81214DF20B50FDF78D
:1039300049FF00214DF20C50FDF744FFA6214DF246
:103940000D50FDF73FFF00214DF20E50FDF73AFFFD
:10395000E5214DF20F50FDF735FF01214DF21050DA
:10396000FDF730FF13214DF21150FDF72BFF012120
:103970004DF21250FDF726FF54214DF21350FDF782
:1039800021FF01214DF21450FDF71CFF82214DF261
:103990001550FDF717FF01214DF21650FDF712FFEC
:1039A000CA214DF21750FDF70DFF02214DF21850BC
:1039B000FDF708FF00214DF21950FDF703FF02212A
:1039C0004DF21A50FDF7FEFE01214DF21B50FDF79E
:1039D000F9FE02214DF21C50FDF7F4FE34214DF2A8
:1039E0001D50FDF7EFFE02214DF21E50FDF7EAFEDD
:1039F00067214DF21F50FDF7E5FE02214DF22050E8
:103A0000FDF7E0FE84214DF22150FDF7DBFE02219F
:103A10004DF22250FDF7D6FEA4214DF22350FDF7C2
:103A2000D1FE02214DF22450FDF7CCFEB7214DF21C
:103A30002550FDF7C7FE02214DF22650FDF7C2FECC
:103A4000CF214DF22750FDF7BDFE02214DF2285047
:103A5000FDF7B8FEDE214DF22950FDF7B3FE02213D
:103A60004DF22A50FDF7AEFEF2214DF22B50FDF73C
:103A7000A9FE02214DF22C50FDF7A4FEFE214DF2CD
:103A80002D50FDF79FFE03214DF22E50FDF79AFEBB
:103A900010214DF22F50FDF795FE03214DF23050CD
:103AA000FDF790FE33214DF23150FDF78BFE0321DF
:103AB0004DF23250FDF786FE6D214DF23350FDF789
:103AC00081FE00214FF45640FDF77CFE33214DF27C
:103AD0000160FDF777FE00214DF20260FDF772FEF6
:103AE00034214DF20360FDF76DFE00214DF20460BC
:103AF000FDF768FE3A214DF20560FDF763FE0021F7
:103B00004DF20660FDF75EFE4A214DF20760FDF7BB
:103B100059FE00214DF20860FDF754FE5C214DF284
:103B20000960FDF74FFE00214DF20A60FDF74AFEE5
:103B300081214DF20B60FDF745FE00214DF20C6036
:103B4000FDF740FEA6214DF20D60FDF73BFE002182
:103B50004DF20E60FDF736FEE5214DF20F60FDF7E8
:103B600031FE01214DF21060FDF72CFE13214DF2C4
:103B70001160FDF727FE01214DF21260FDF722FED4
:103B800054214DF21360FDF71DFE01214DF214602A
:103B9000FDF718FE82214DF21560FDF713FE01219D
:103BA0004DF21660FDF70EFECA214DF21760FDF7CB
:103BB00009FE02214DF21860FDF704FE00214DF2CE
:103BC0001960FDF7FFFD02214DF21A60FDF7FAFDC5
:103BD00001214DF21B60FDF7F5FD02214DF21C6045
:103BE000FDF7F0FD34214DF21D60FDF7EBFD0221E4
:103BF0004DF21E60FDF7E6FD67214DF21F60FDF7F7
:103C0000E1FD02214DF22060FDF7DCFD84214DF243
:103C10002160FDF7D7FD02214DF22260FDF7D2FDB4
:103C2000A4214DF22360FDF7CDFD02214DF2246069
:103C3000FDF7C8FDB7214DF22560FDF7C3FD022158
:103C40004DF22660FDF7BEFDCF214DF22760FDF756
:103C5000B9FD02214DF22860FDF7B4FDDE214DF2E1
:103C60002960FDF7AFFD02214DF22A60FDF7AAFDA4
:103C7000F2214DF22B60FDF7A5FD02214DF22C60E3
:103C8000FDF7A0FDFE214DF22D60FDF79BFD032108
:103C90004DF22E60FDF796FD10214DF22F60FDF7DD
:103CA00091FD03214DF23060FDF78CFD33214DF283
:103CB0003160FDF787FD03214DF23260FDF782FD93
:103CC0006D214DF23360FDF77DFD55211846FDF75E
:103CD00079FDAA212846FDF775FD52213046FDF7F2
:103CE00071FD08213846FDF76DFD00216046FDF7A6
:103CF00069FDCC215046FDF765FD00215846FDF7D2
:103D000061FD05214846FDF75DFD70214FF4374008
:103D1000FDF758FD70214BF20170FDF753FD0121B5
:103D20004FF43840FDF74EFD03214BF60100FDF73F
:103D300049FD03214BF60200FDF744FD03214BF63C
:103D40000300FDF73FFD02214FF43C40FDF73AFD33
:103D500000214BF60140FDF735FD00214BF60240F6
:103D6000FDF730FDD0214FF44940FDF72BFD022136
:103D70004CF60110FDF726FD50214CF60210FDF720
:103D800021FD50214CF60310FDF71CFD50214CF68F
:103D90000410FDF717FD00214FF45450FDF712FDFC
:103DA00055214FF46850FDF70DFD4FF488502080E9
:103DB000782005F07DFE4FF424502080FEE3A0F52E
:103DC00013414FF4E06940F2022A4FF4274B2539A2
:103DD0002ED0A0F5134140F2077728397ED0A0F508
:103DE00013414FF4887B203979D0A0F51341313944
:103DF00076D0A0F5A841083973D0A0F5A8514FF4AA
:103E0000407B05396ED0A0F5354105396BD0A0F562
:103E10004541053968D0A0F58A4131397ED0A0F5F9
:103E20008A4135397BD0A0F5C851633978D0C5E7D0
:103E300047F6F001E520FDF7C5FC31460120FDF70E
:103E4000C1FC49460220FDF7BDFC41F230010320D0
:103E5000FDF7B8FC00210420FDF7B4FC5146082012
:103E6000FDF7B0FC00210920FDF7ACFC00210A2081
:103E7000FDF7A8FC00210C20FDF7A4FC00210D207B
:103E8000FDF7A0FC00210F20FDF79CFC0021102075
:103E9000FDF798FC07211120FDF794FC002112206A
:103EA000FDF790FC00211320FDF78CFC002107207A
:103EB000FDF788FC41F290611020FDF783FC40F291
:103EC00027211120FDF77EFC9D211220FDF77AFCB1
:103ED0004FF4C8511320FDF775FC06E080E03CE18B
:103EE000E1E1B7E253E3FDE3FDE325212920FDF7FE
:103EF00069FC0D212B20FDF765FC07213020FDF723
:103F000061FC40F203313120FDF75CFC03213220DB
:103F1000FDF758FC40F20621352002E0FEE3FEE307
:103F2000FEE3FDF74FFC08213620FDF74BFC40F285
:103F300006413720FDF746FC4FF441713820FDF76C
:103F400041FC07213920FDF73DFC40F202613C2095
:103F5000FDF738FC08213D20FDF734FC00215020FE
:103F6000FDF730FCEF215120FDF72CFC0021522001
:103F7000FDF728FC40F23F115320FDF723FC594682
:103F80006020FDF71FFC01216120FDF71BFC0021D3
:103F90006A20FDF717FC00218020FDF713FC0021AB
:103FA0008120FDF70FFC00218220FDF70BFC002192
:103FB0008320FDF707FC00218420FDF703FC00218E
:103FC0008520FDF7FFFB10219020FDF7FBFB4FF450
:103FD000C0619220FDF7F6FB40F233110720FDE3AC
:103FE00041F28F01EC20FDF7EDFB41F23421EF208F
:103FF000FDF7E8FB31460120FDF7E4FB49460220CE
:10400000FDF7E0FB41F230010320FDF7DBFB00216F
:104010000420FDF7D7FB51460820FDF7D3FB002114
:104020000920FDF7CFFB00210A20FDF7CBFB012182
:104030000C20FDF7C7FB00210D20FDF7C3FB00217D
:104040000F20FDF7BFFB00211020FDF7BBFB072170
:104050001120FDF7B7FB00211220FDF7B3FB002173
:104060001320FDF7AFFB01210720FDF7ABFB32204A
:1040700005F03DFD41F290411020FDF7A3FB40F219
:1040800027211120FDF79EFB322005F030FD8A210B
:104090001220FDF797FB322005F029FD4FF4D05197
:1040A0001320FDF78FFB06212920FDF78BFB0D2147
:1040B0002B20FDF787FB322005F019FD0021202081
:1040C000FDF780FB00212120FDF77CFB322005F06D
:1040D0000EFD00213020FDF775FB40F20461312018
:1040E000FDF770FB40F205313220FDF76BFB00213C
:1040F0003520FDF767FB40F609413620FDF762FBEE
:104100004FF401713720FDF75DFB40F2013138209B
:10411000FDF758FB39463920FDF754FB00213C20C0
:10412000FDF750FB40F60A213D20FDF74BFB322006
:1041300005F0DDFC00215020FDF744FBEF2151206C
:10414000FDF740FB00215220FDF73CFB40F23F1100
:104150005320FDF737FB594651E100210846FDF792
:1041600031FB31460120FDF72DFB49460220FDF7CA
:1041700029FB41F230010320FDF724FB002104203C
:10418000FDF720FB51460820FDF71CFB002109200C
:10419000FDF718FB00210A20FDF714FB01210C207C
:1041A000FDF710FB00210D20FDF70CFB00210F2077
:1041B000FDF708FB322005F09AFC40F201110720C0
:1041C000FDF700FB322005F092FC4FF486511020E1
:1041D000FDF7F8FA07211120FDF7F4FA5B4659467E
:1041E0001220FDF7EFFA4FF430611320FDF7EAFAE1
:1041F00000212920FDF7E6FA44F210012B20FDF7FB
:10420000E1FA00215020FDF7DDFAEF215120FDF702
:10421000D9FA00215220FDF7D5FA40F23F11532080
:10422000FDF7D0FA4FF41C516020FDF7CBFA0121C5
:104230006120FDF7C7FA00216A20FDF7C3FA0021CB
:104240008020FDF7BFFA00218120FDF7BBFA002195
:104250008220FDF7B7FA00218320FDF7B3FA002191
:104260008420FDF7AFFA00218520FDF7ABFA10217D
:104270009020FDF7A7FA00219220FDF7A3FA012173
:104280009320FDF79FFA19469520FDF79BFA002130
:104290009720FDF797FA00219820FDF793FA40F256
:1042A0007311072086E341F21401E720FDF78AFA33
:1042B00031460120FDF786FA4FF400710220FDF728
:1042C00081FA41F238010320FDF77CFA51460820BB
:1042D000FDF778FA00210920FDF774FA00210A2081
:1042E000FDF770FA00210C20FDF76CFA00210D207B
:1042F000FDF768FA00210F20FDF764FA0021102075
:10430000FDF760FA07211120FDF75CFA0021122069
:10431000FDF758FA00211320FDF754FAC82005F0E4
:10432000E6FB41F290611020FDF74CFA40F22721A4
:104330001120FDF747FA322005F0D9FB0C2112209D
:10434000FDF740FA322005F0D2FB4FF40061132054
:10435000FDF738FA11212920FDF734FA0B212B2023
:10436000FDF730FA322005F0C2FB00212020FDF7D6
:1043700029FA40F23F1319462120FDF723FA0021C4
:104380003020FDF71FFA4FF4837421463120FDF7EA
:1043900019FA00213220FDF715FA4FF4017135208A
:1043A000FDF710FA41F20A613620FDF70BFA3946A3
:1043B0003720FDF707FA21463820FDF703FA394682
:1043C0003920FDF7FFF940F202413C20FDF7FAF9F0
:1043D00040F60F413D20FDF7F5F900215020FDF793
:1043E000F1F9EF215120FDF7EDF900215220FDF701
:1043F000E9F919465320FDF7E5F94FF41C51602007
:10440000FDF7E0F901216120FDF7DCF900216A20C8
:10441000FDF7D8F900218020FDF7D4F90021812093
:10442000FDF7D0F900218220FDF7CCF9002183208F
:10443000FDF7C8F900218420FDF7C4F9002185208B
:10444000FDF7C0F910219020FDF7BCF94FF4C061D1
:104450009220FDE331460120FDF7B4F949460220E0
:10446000FDF7B0F941F230010320FDF7ABF900216F
:104470000420FDF7A7F940F207210820FDF7A2F973
:1044800000210920FDF79EF900210A20FDF79AF985
:1044900000210C20FDF796F900210D20FDF792F97F
:1044A00000210F20FDF78EF9142005F020FB41F2CA
:1044B000B0611020FDF786F901211120FDF782F986
:1044C00001211720FDF77EF94FF49C711220FDF7B2
:1044D00079F94FF400611320FDF774F909212920BF
:1044E000FDF770F909212A20FDF76CF90021A420BD
:1044F000FDF768F900215020FDF764F9EF21512004
:10450000FDF760F900215220FDF75CF940F23F1100
:104510005320FDF757F94FF41C516020FDF752F975
:1045200001216120FDF74EF900216A20FDF74AF9CB
:1045300000218020FDF746F900218120FDF742F996
:1045400000218220FDF73EF900218320FDF73AF992
:1045500000218420FDF736F900218520FDF732F98E
:1045600013219020FDF72EF900219220FDF72AF962
:1045700003219320FDF726F959469520FDF722F9EE
:1045800040F273110720FDF71DF9322011E10021DF
:104590000720FDF717F9322005F0A9FA4FF48E71C4
:1045A0001220FDF70FF90121A420FDF70BF90F21CF
:1045B0000820FDF707F908210A2000E07BE3FDF75A
:1045C00001F908210D20FDF7FDF839463020FDF7EF
:1045D000F9F807213120FDF7F5F840F203613220A8
:1045E000FDF7F0F84C4649463320FDF7EBF851460D
:1045F0003420FDF7E7F802213520FDF7E3F841F616
:104600000F713620FDF7DEF839463720FDF7DAF86E
:1046100000213820FDF7D6F800213920FDF7D2F827
:1046200039463A20FDF7CEF800213B20FDF7CAF8C5
:1046300007213C20FDF7C6F800213D20FDF7C2F818
:10464000322005F054FA01210720FDF7BBF80121C3
:104650001720FDF7B7F8322005F049FA4FF4BD51A5
:104660001020FDF7AFF840F217211120FDF7AAF84E
:104670004FF48F711220FDF7A5F84FF470611320ED
:10468000FDF7A0F800212A20FDF79CF80A21292037
:10469000FDF798F84FF49F711220FDF793F8002171
:1046A0005020FDF78FF8EF215120FDF78BF8002106
:1046B0005220FDF787F840F23F115320FDF782F8B2
:1046C0004FF41C516020FDF77DF801216120FDF7BA
:1046D00079F800216A20FDF775F800218020FDF7A8
:1046E00071F801E068E066E100218120FDF76AF8D9
:1046F00000218220FDF766F800218320FDF762F893
:1047000000218420FDF75EF800218520FDF75AF88E
:1047100013219020FDF756F8594602E015E2CBE24E
:1047200072E39220FDF74EF805219320FDF74AF839
:1047300000219520FDF746F800219720FDF742F86B
:1047400000219820FDF73EF831460120FDF73AF8A8
:1047500021460220FDF736F841F238010320FDF72B
:1047600031F800210420FDF72DF800210C20FDF781
:1047700029F800210F20FDF725F800212020FDF762
:1047800021F800212120FDF71DF821210720FDF748
:1047900019F8142005F0ABF961210720FDF712F894
:1047A000142005F0A4F940F273110720FDF70AF870
:1047B000142005F09CF9A1E300210846FDF702F85A
:1047C00000210846FCF7FEFF00210846FCF7FAFF2F
:1047D00000210846FCF7F6FF012100E0E6E0A420F6
:1047E000FCF7F0FF142005F082F94FF41C54214629
:1047F0006020FCF7E7FF554651460820FCF7E2FF32
:104800004FF405713020FCF7DDFF43F215713120C4
:10481000FCF7D8FF40F204613220FCF7D3FF40F6EA
:1048200016613320FCF7CEFF42F211213420FCF751
:10483000C9FF4FF4A8513520FCF7C4FF48F20751D7
:104840003620FCF7BFFF41F207413720FCF7BAFFE3
:1048500041F203413820FCF7B5FF20213920FCF755
:10486000B1FF1A219020FCF7ADFF00211020FCF7CA
:10487000A9FF07211120FCF7A5FF00211220FCF75A
:10488000A1FF00211320FCF79DFF142005F02FF954
:104890004FF4E6611020FCF795FF40F2371111202C
:1048A000FCF790FF142005F022F94FF4DC71122080
:1048B000FCF788FF142005F01AF94FF470611320FB
:1048C000FCF780FF80212A20FCF77CFF482129206B
:1048D000FCF778FF142005F00AF931460120FCF7B7
:1048E00071FF49460220FCF76DFF41F238010320B9
:1048F000FCF768FF29460820FCF764FF00210A2026
:10490000FCF760FF00210C20FCF75CFF00210D206C
:10491000FCF758FF30210E20FCF754FF00215020F7
:10492000FCF750FFEF215120FCF74CFF00215220F3
:10493000FCF748FF40F23F115320FCF743FF2146AC
:104940006020FCF73FFF01216120FCF73BFF0021C5
:104950006A20FCF737FF11219020FCF733FF4FF45A
:10496000C0619220FCF72EFF40F202419320FCF739
:1049700029FF02219420FCF725FF142005F0B7F849
:1049800001210720FCF71EFF142005F0B0F861217B
:104990000720FCF717FF40F273110720FCF712FF06
:1049A00000212020FCF70EFF00212120FCF70AFF48
:1049B000222100207DE100210846FCF703FF0021B1
:1049C0000846FCF7FFFE142005F091F80021084688
:1049D000FCF7F8FE00210846FCF7F4FE002108462B
:1049E000FCF7F0FE00210846FCF7ECFE0121A420B4
:1049F000FCF7E8FE142005F07AF84FF41C51602013
:104A0000FCF7E0FE40F606010820FCF7DBFE40F272
:104A1000037319463020FCF7D5FE01213120FCF745
:104A2000D1FE04213220FCF7CDFE4FF481713320FA
:104A3000FCF7C8FE5C4659463420FCF7C3FE40F242
:104A400003113520FCF7BEFE1F213620FCF7BAFE0D
:104A500019463720FCF7B6FE01213820FCF7B2FEDC
:104A600004213920FCF7AEFE15219020FCF7AAFEA8
:104A70004FF482611020FCF7A5FE40F2472111207F
:104A8000FCF7A0FE4FF4DE711220FCF79BFE4FF402
:104A900060611320FCF796FE782005F028F8314677
:104AA0000120FCF78FFE4FF400710220FCF78AFE14
:104AB00041F230010320FCF785FE08210A20FCF7B3
:104AC00081FE00210C20FCF77DFE20210E20FCF74A
:104AD00079FE00210F20FCF775FE00212020FCF755
:104AE00071FE00212120FCF76DFE3D212A20FCF7FC
:104AF00069FE142004F0FBFF2D212920FCF762FE43
:104B000000215020FCF75EFE4DF2EF015120FCF732
:104B100059FE00215220FCF755FE40F23F11532070
:104B2000FCF750FE00216120FCF74CFE00216A20BA
:104B3000FCF748FE21469220FCF744FE0521932015
:104B4000FCF740FE3146FFF7ACBB01210020FCF72B
:104B500039FE0A2004F0CBFF41F228611020FCF757
:104B600031FE0E211220FCF72DFE40F639211320D4
:104B7000FCF728FE0A2004F0BAFF40211120FCF7C0
:104B800021FE50211520FCF71DFE0A2004F0AFFF86
:104B90001E211220FCF716FE0A2004F0A8FF4FF495
:104BA000B1511020FCF70EFE42F639211320FCF71C
:104BB00009FE0A2004F09BFF31460120FCF702FEAB
:104BC00059460220FCF7FEFD41F238010320FCF7B4
:104BD000F9FD51460820FCF7F5FD08210A20FCF7F5
:104BE000F1FD00213020FCF7EDFD40F202413120C3
:104BF000FCF7E8FD4FF483713220FCF7E3FD40F24F
:104C000003513320FCF7DEFD4FF482713420FCF7B2
:104C1000D9FD40F201313520FCF7D4FD394636206C
:104C2000FCF7D0FD40F205313720FCF7CBFD4FF407
:104C300002713820FCF7C6FD40F60B713920FCF7F5
:104C4000C1FD02214120FCF7BDFD4FF41C5100E0E5
:104C5000D5E06020FCF7B6FD01216120FCF7B2FD34
:104C60004FF404719020FCF7ADFD4FF48571922054
:104C7000FCF7A8FD04219320FCF7A4FD3146A020F9
:104C8000FCF7A0FD01210720FCF79CFD2121072056
:104C9000FCF798FD23210720FCF794FD3321072022
:104CA000FCF790FD40F233110720FCF78BFD00214B
:104CB000A020FCF787FD21E130211520FCF782FDC3
:104CC00010219A20FCF77EFD20211120FCF77AFDAF
:104CD00043F228411020FCF775FD02211220FCF759
:104CE00071FD41F238011320FCF76CFD282004F01F
:104CF000FEFE12210846FCF765FD282004F0F7FEB1
:104D000043F220411020FCF75DFD43F238011320EF
:104D1000FCF758FD462004F0EAFE00213020FCF7A5
:104D200051FD40F202413120FCF74CFD40F20731C9
:104D30003220FCF747FD4FF441713320FCF742FD70
:104D400004213420FCF73EFD40F201413520FCF700
:104D500039FD39463620FCF735FD40F20531372064
:104D6000FCF730FD4FF4C26319463820FCF72AFDEA
:104D700019463920FCF726FD31460120FCF722FDBB
:104D800059460220FCF71EFD41F230010320FCF7DA
:104D900019FD40F608010820FCF714FD08210A203F
:104DA000FCF710FD4FF41C516020FCF70BFD0121B6
:104DB0006120FCF707FD4FF49F719020FCF702FD86
:104DC00031469220FCF7FEFC31469320FCF7FAFCBA
:104DD0004FF44051A020FCF7F5FC1021A320FCF774
:104DE000F1FC01210720FCF7EDFC21210720FCF755
:104DF000E9FC23210720FCF7E5FC33210720FCF721
:104E0000E1FC40F233119EE6E2202080232028803E
:104E10000220288004202880642004F049FEE0203D
:104E20002080012028800A2004F061FEE0202080FC
:104E3000032028800C2004F05AFE012020800A2044
:104E400004F055FEE620208003202880FF202880E3
:104E50002880B02020802020288000202880032067
:104E6000288040F21F3028800120288040F2DF1087
:104E7000288000202880B42020800420288040F250
:104E80001F40288000202880D220288000202880F1
:104E9000288028802880B6202080022028804FF497
:104EA0000370288000202880222028800920288064
:104EB000002028802880F0202080032028802920BE
:104EC0002080D020208000202880BE202080052047
:104ED0002880FE20288001202880FF2028800020B4
:104EE0002880B82020800F20288001202880BA2028
:104EF0002080012028806420FCF752FF0020FCF76E
:104F000068FFFF490120C1F880014046FDF7BBF86A
:104F10001FB0BDE8F08F2DE9F843FA4D1F468046DB
:104F2000AB88089EA3F5D040043802D1A8790128A7
:104F300007D0A2EB0800401C85B20C46DFF8C893EE
:104F400028E02B880846991A0024AC713A462A2496
:104F5000A3EB08036C812B27491E5B1EAF8189B22E
:104F60009BB20096FFF7D7FF0120A8716F81AC813B
:104F7000BDE8F88321464046FCF748FCFCF730FCCE
:104F80000020494602E00E80401C80B2A842FAD3BD
:104F9000641CA4B2BC42EDD9EAE72DE9F047824691
:104FA000A2EB0A00401C0E4685B2981B401C87B23B
:104FB0000024DFF85493DDF8208014E0301981B22A
:104FC0005046FCF723FCFCF70BFC0020494606E0AA
:104FD00004FB050338F813200A80401C80B2A84265
:104FE000F6D3641CA4B2BC42E8D3BDE8F0872DE937
:104FF000FE4F0026A2EB000882465F1A701E35465F
:105000008946B8F1000F02DD4FF0010102E003D143
:105010004FF00001019102E0C8F100080190002F5B
:1050200002DD4FF0010002E003D14FF000000090DC
:1050300002E0C7F1000700904046B84501DD044694
:1050400000E03C46601C4FF0000B029015E01FFA98
:1050500089F11FFA8AF0FCF70EFE46443D44A64251
:1050600002DD0199361B8A44A54202DD00992D1B01
:1050700089440BF101001FFA80FB02998B45E6DDA4
:10508000BDE8FE8FF0B51C4615460E4607460B469A
:10509000FFF7ADFF3A46234631461046FFF7A7FF1C
:1050A00023462A4619463846FFF7A1FF2A462346DB
:1050B0003146BDE8F040104699E72DE9FC4F8046A7
:1050C0000024154603200F46A0EB450649E0781B57
:1050D00081B208EB040A01901FFA8AF0FCF7CBFDBD
:1050E000381B81B208EB050900901FFA89F0FCF724
:1050F000C2FD07EB040B1FFA8BF11FFA89F0FCF7D6
:10510000BAFD07EB05091FFA89F11FFA8AF0FCF7CF
:10511000B2FDA8EB040A1FFA89F11FFA8AF0FCF726
:10512000AAFDA8EB05091FFA8BF11FFA89F0FCF71D
:10513000A2FD019881B21FFA8AF0FCF79CFD00984D
:1051400081B21FFA89F0FCF796FD641C002E03DA89
:1051500006EB8406B61D04E0601B06EB80066D1EA0
:105160000A36AC42B3DDBDE8FC8F2DE9F84F82462C
:105170001F460C468B46580700D0012000EBD70095
:1051800079084843203AC0B202F0FF090026009097
:1051900041E00C2F10D0102F12D0182F3ED15B49B8
:1051A00009EBC90001EB80004FF00008855D28067F
:1051B0000AD5574802880BE009EB49005549F1E749
:1051C000554901EB0910EFE70A9828B95048428881
:1051D00021465046FCF75AFD6806050E4948641CF6
:1051E000A4B24088A04219D9A4EB0B00B84209D15F
:1051F0000AF101001FFA80FA42485C4601885145D5
:105200000CD906E008F1010000F0FF08B8F1080F22
:10521000CDD3761CF6B200988642BAD3BDE8F88F9B
:105220000346012000E05843491EC9B2FBD2704733
:105230002DE9FF4F81B00027DDF838B01D469246BA
:1052400080463C46B9464FEA5B0627E0281B401ED5
:10525000C1B20A20FFF7E4FFBAFBF0F00A21B0FB6D
:10526000F1F201FB120027B9691E8C4201DA48B144
:1052700001273030C2B206FB048080B25B46CDF815
:10528000009006E006FB048080B25B462022CDF849
:1052900000900299FFF769FF641CE4B2AC42D5D3D9
:1052A00005B036E62DE9FF4F81B08046DDF83CA021
:1052B0000E984FF000091F4693464C460AF0010530
:1052C000460839E0381B401EC1B20A20FFF7A8FF8C
:1052D000BBFBF0F00A21B0FBF1F201FB1200B9F1C7
:1052E000000F05D1791E8C4202DAB8B14FF00109E6
:1052F0003030C2B206FB048080B200950E9B16E0EF
:1053000000802142506D00200008006C10800308CE
:105310001A000020AC750308207A03085FEA0A60CF
:1053200006FB04800E9B80B2009508D530220299BE
:10533000FFF71BFF641CE4B2BC42C3D3B0E72022DA
:10534000F5E72DE9F84F044600F0FF0810190D4667
:10535000DDE90A761FFA80FA58191FFA80F94FF032
:10536000000B11E0544502D3E819444685B24D457F
:105370000FD23B4629462046CDF800B0FFF7F5FE98
:1053800004EB570084B2761C3278A2F120005E282C
:10539000E8D943E74E48416941F480714161816930
:1053A00041F020018161816941F0400181618169A1
:1053B00041F080018161816941F4807181614548DA
:1053C000016800210160026842F0BB320260001FE8
:1053D000026802F0FF220260026842F0BB12026023
:1053E0003D4802680160026842F0BB320260001F63
:1053F00002683A4B1A4002600268394B1A43026055
:105400003848026892B202600268374B1A43026061
:10541000001F026802F07F4202600368334A1343B0
:1054200003603348436823F470634360436843F484
:1054300030634360036803F07F43036003681343F2
:1054400003604FF0204001614161C0F8141101690F
:1054500041F480510161016941F01001016141692C
:1054600041F44071416141694161416941616FF0BD
:105470007041C0F81411016941F0010101617047E8
:1054800010B5002A07D04FF0D04310F8014B5C5400
:10549000491C521EF7D110BD002A07D04FF0D0434F
:1054A0005B5C491C00F8013B521EF7D1704703B505
:1054B0000146012201A8FFF7E3FF0CBD08B5014634
:1054C00001226846FFF7E8FF9DF8000008BD0000D4
:1054D00000100240041401400418014000FFFF0FB7
:1054E000BB0000B0041C01400000BBBBBBBBBB0049
:1054F0000020014038B50121082005F08AF9C020BC
:10550000ADF8000010208DF803000320824C8DF8C8
:1055100002006946204604F094FFC021204604F0B2
:10552000FAFF38BD70B57C48016821F07041016018
:10553000016841F040510160784C0120C4F89C01A1
:10554000C4F89801042004F5CC7404F0B1FA0025E5
:105550006560042004F0ACFA256070BD6E4810B59B
:10556000016821F070410160016841F04051016023
:105570006A4C0020C4F89801C4F89C01042004F58A
:10558000CC7404F095FA012020606060BDE8104002
:10559000042004F08DBA70B55F480024016821F042
:1055A00070410160016841F0004101605B4D0126DE
:1055B000C5F89C61304604F07BFAC5F8986101207B
:1055C00004F076FA07E0641CE4B2FA2C03D9FFF782
:1055D000C5FF012070BDD5F81C010028F3D1C5F826
:1055E000980170BD70B54D4C0025C4F898514A48DB
:1055F000016821F070410160016841F04051016093
:10560000C4F89C51022004F5CC7404F051FA012036
:105610002060022004F04CFA256070BD70B53F4C4C
:105620000026C4F898613C48016821F0704101608F
:10563000016841F0405101600125C4F89C510220ED
:1056400004F5CC7404F034FA2560022004F030FA3A
:10565000266070BD2DE9F04105462F48016821F014
:1056600070410160016841F0405101602B4E0027FC
:10567000C6F898713C464FF00108280602D5C6F8D6
:105680009C8101E0C6F89C716806050E022004F0BA
:105690000FFAC6F89881022004F00AFAC6F8987149
:1056A000022004F005FA641CE4B2082CE5D3BDE83E
:1056B000F0812DE9F047814617480024016821F068
:1056C00070410160016841F000410160134E2546C0
:1056D00027464FF00108C6F89871022004F0E8F957
:1056E000C6F898816006040ED6F81C0108B1641C47
:1056F000E4B2012004F0DCF96D1CEDB2082DEAD310
:10570000B9F1000F04D0FFF76DFF2046BDE8F08728
:10571000FFF784FFF9E70000000C01400080214200
:10572000FFF7E8BE10B50446FFF7FCFE200AA021F3
:1057300001EB4000C0B2FFF78DFFFFF72CFFE0B296
:10574000FFF788FFFFF727FFFFF7ECFEA120FFF729
:1057500081FFFFF720FF0020FFF7ABFF0446FFF7B4
:10576000FDFE204610BD70B50D460446FFF7DAFE7B
:10577000200AA02101EB4000C0B2FFF76BFFFFF74A
:105780000AFFE0B2FFF766FFFFF705FF2846FFF7C5
:1057900061FFFFF700FFFFF7E1FEBDE870400A2060
:1057A00004F0A5B92DE9F04116460D460746002440
:1057B00009E0E00025FA00F0C1B2381980B2FFF725
:1057C000D2FF641CE4B2B442F3D3BDE8F0812DE90A
:1057D000F0410D460146002004464E1908E007023C
:1057E000301B401E80B2FFF79DFF641C3844E4B2BA
:1057F000AC42F4D3E9E710B5FF20FFF793FF55283B
:105800000AD05521FF20FFF7AEFFFF20FFF78AFFE8
:10581000552801D0012010BD002010BD70B51546DF
:105820000E46044608E02046641CA4B2FFF77AFF47
:105830006D1E06F8010BADB2002DF4D170BD70B530
:1058400014460D46064606E029783046FFF78BFFE2
:10585000761CB6B26D1C641EA4B2F5D270BD0000F9
:1058600070B506460024394D03E0641CE4B2C82C30
:105870000FD80221284605F027F90028F5D0314637
:10588000284605F0DDF8002405E0641CE4B2C82CCD
:1058900001D9002070BD0121284605F015F9002826
:1058A000F3D0284605F0CEF8C0B270BD70B586B012
:1058B0000121082004F0ADFF0121880304F0B2FFAC
:1058C0004FF46045ADF8145018248DF817400320AC
:1058D0001F4E8DF8160005A9304604F0B2FD29468A
:1058E000304604F018FE0020ADF80000ADF80400CA
:1058F0004FF48271ADF802100221ADF80610ADF838
:105900000C400121ADF80810ADF80E004902072047
:105910000E4CADF80A10ADF810006946204604F0B0
:10592000EBFF0121204605F063F8FF20FFF798FF09
:1059300006B070BD01460548028822F03802028098
:1059400002880A430280012105F052B80038004065
:10595000000C0140052004F0ABB89448816941F087
:1059600008018161816941F080018161904801688D
:1059700021F0F0010160016841F0300101608D48C3
:10598000016821F0F0010160016841F0300101601F
:1059900087480C30016841F00201016085480830F9
:1059A000016841F400710160704770B58148016879
:1059B00021F0F0010160016841F0300101607E4E8C
:1059C0000120C6F8A4017D4DC5F884011E2005F50F
:1059D000C27506F5D27604F06BF800243460052019
:1059E00004F066F82C6070BD70B57248016821F053
:1059F000F0010160016841F0300101606F4801254C
:105A0000C0F884511E2004F053F86B4C0020C4F8F9
:105A1000A401052004F5D27404F04AF8256070BD95
:105A200070B564480024016821F0F001016001684C
:105A300041F080010160604D0120C5F8A4015F4E76
:105A4000C6F8840107E0641CE4B2FA2C03D9FFF71E
:105A5000CBFF012070BD052004F02AF8D5F8240101
:105A60000028F0D1C6F8840170BD70B5534C0025F4
:105A7000C4F884514F48016821F0F00101600168C9
:105A800041F030010160052004F5C27404F010F803
:105A90004948C0F8A451052004F00AF8012020600C
:105AA000052004F005F8256070BD70B5434C002654
:105AB000C4F884613F48016821F0F0010160016889
:105AC00041F030010160052004F5C27403F0F0FFDD
:105AD00039480125C0F8A451052003F0E9FF2560ED
